{
  "contractName": "Auction",
  "abi": [
    {
      "inputs": [],
      "stateMutability": "nonpayable",
      "type": "constructor"
    },
    {
      "inputs": [],
      "name": "auctionState",
      "outputs": [
        {
          "internalType": "enum Auction.State",
          "name": "",
          "type": "uint8"
        }
      ],
      "stateMutability": "view",
      "type": "function",
      "constant": true
    },
    {
      "inputs": [],
      "name": "bidInc",
      "outputs": [
        {
          "internalType": "uint256",
          "name": "",
          "type": "uint256"
        }
      ],
      "stateMutability": "view",
      "type": "function",
      "constant": true
    },
    {
      "inputs": [
        {
          "internalType": "address",
          "name": "",
          "type": "address"
        }
      ],
      "name": "bidders",
      "outputs": [
        {
          "internalType": "uint256",
          "name": "",
          "type": "uint256"
        }
      ],
      "stateMutability": "view",
      "type": "function",
      "constant": true
    },
    {
      "inputs": [],
      "name": "endTime",
      "outputs": [
        {
          "internalType": "uint256",
          "name": "",
          "type": "uint256"
        }
      ],
      "stateMutability": "view",
      "type": "function",
      "constant": true
    },
    {
      "inputs": [],
      "name": "highestBidder",
      "outputs": [
        {
          "internalType": "address payable",
          "name": "",
          "type": "address"
        }
      ],
      "stateMutability": "view",
      "type": "function",
      "constant": true
    },
    {
      "inputs": [],
      "name": "highestPayableBid",
      "outputs": [
        {
          "internalType": "uint256",
          "name": "",
          "type": "uint256"
        }
      ],
      "stateMutability": "view",
      "type": "function",
      "constant": true
    },
    {
      "inputs": [],
      "name": "owner",
      "outputs": [
        {
          "internalType": "address payable",
          "name": "",
          "type": "address"
        }
      ],
      "stateMutability": "view",
      "type": "function",
      "constant": true
    },
    {
      "inputs": [],
      "name": "startTime",
      "outputs": [
        {
          "internalType": "uint256",
          "name": "",
          "type": "uint256"
        }
      ],
      "stateMutability": "view",
      "type": "function",
      "constant": true
    },
    {
      "inputs": [],
      "name": "cancelAuction",
      "outputs": [],
      "stateMutability": "nonpayable",
      "type": "function"
    },
    {
      "inputs": [],
      "name": "placeBid",
      "outputs": [],
      "stateMutability": "payable",
      "type": "function",
      "payable": true
    },
    {
      "inputs": [],
      "name": "finalize",
      "outputs": [],
      "stateMutability": "nonpayable",
      "type": "function"
    }
  ],
  "bytecode": "0x608060405234801561001057600080fd5b50336000806101000a81548173ffffffffffffffffffffffffffffffffffffffff021916908373ffffffffffffffffffffffffffffffffffffffff1602179055506001600360006101000a81548160ff021916908360038111156100775761007661013b565b5b02179055504360018190555060f060015461009291906100ac565b600281905550670de0b6b3a764000060058190555061016a565b60006100b782610102565b91506100c283610102565b9250827fffffffffffffffffffffffffffffffffffffffffffffffffffffffffffffffff038211156100f7576100f661010c565b5b828201905092915050565b6000819050919050565b7f4e487b7100000000000000000000000000000000000000000000000000000000600052601160045260246000fd5b7f4e487b7100000000000000000000000000000000000000000000000000000000600052602160045260246000fd5b610e46806101796000396000f3fe60806040526004361061009c5760003560e01c80637fb45099116100645780637fb45099146101645780638da5cb5b1461018f5780638fa8b790146101ba57806391f90157146101d1578063ecfc7ecc146101fc578063fcc8f793146102065761009c565b806315b24677146100a15780633197cbb6146100cc5780634bb278f3146100f75780634f5150ca1461010e57806378e9792514610139575b600080fd5b3480156100ad57600080fd5b506100b6610243565b6040516100c39190610be1565b60405180910390f35b3480156100d857600080fd5b506100e1610249565b6040516100ee9190610be1565b60405180910390f35b34801561010357600080fd5b5061010c61024f565b005b34801561011a57600080fd5b5061012361060f565b6040516101309190610be1565b60405180910390f35b34801561014557600080fd5b5061014e610615565b60405161015b9190610be1565b60405180910390f35b34801561017057600080fd5b5061017961061b565b6040516101869190610b86565b60405180910390f35b34801561019b57600080fd5b506101a461062e565b6040516101b19190610b6b565b60405180910390f35b3480156101c657600080fd5b506101cf610652565b005b3480156101dd57600080fd5b506101e661070c565b6040516101f39190610b6b565b60405180910390f35b610204610732565b005b34801561021257600080fd5b5061022d60048036038101906102289190610acb565b610a83565b60405161023a9190610be1565b60405180910390f35b60055481565b60025481565b60038081111561026257610261610d39565b5b600360009054906101000a900460ff16600381111561028457610283610d39565b5b148061029257506002544310155b61029b57600080fd5b60008054906101000a900473ffffffffffffffffffffffffffffffffffffffff1673ffffffffffffffffffffffffffffffffffffffff163373ffffffffffffffffffffffffffffffffffffffff16148061033457506000600760003373ffffffffffffffffffffffffffffffffffffffff1673ffffffffffffffffffffffffffffffffffffffff16815260200190815260200160002054115b61033d57600080fd5b60008060038081111561035357610352610d39565b5b600360009054906101000a900460ff16600381111561037557610374610d39565b5b14156103c557339150600760003373ffffffffffffffffffffffffffffffffffffffff1673ffffffffffffffffffffffffffffffffffffffff16815260200190815260200160002054905061057f565b60008054906101000a900473ffffffffffffffffffffffffffffffffffffffff1673ffffffffffffffffffffffffffffffffffffffff163373ffffffffffffffffffffffffffffffffffffffff1614156104465760008054906101000a900473ffffffffffffffffffffffffffffffffffffffff169150600454905061057e565b600660009054906101000a900473ffffffffffffffffffffffffffffffffffffffff1673ffffffffffffffffffffffffffffffffffffffff163373ffffffffffffffffffffffffffffffffffffffff16141561053757600660009054906101000a900473ffffffffffffffffffffffffffffffffffffffff16915060045460076000600660009054906101000a900473ffffffffffffffffffffffffffffffffffffffff1673ffffffffffffffffffffffffffffffffffffffff1673ffffffffffffffffffffffffffffffffffffffff168152602001908152602001600020546105309190610c63565b905061057d565b339150600760003373ffffffffffffffffffffffffffffffffffffffff1673ffffffffffffffffffffffffffffffffffffffff1681526020019081526020016000205490505b5b5b6000600760003373ffffffffffffffffffffffffffffffffffffffff1673ffffffffffffffffffffffffffffffffffffffff168152602001908152602001600020819055508173ffffffffffffffffffffffffffffffffffffffff166108fc829081150290604051600060405180830381858888f1935050505015801561060a573d6000803e3d6000fd5b505050565b60045481565b60015481565b600360009054906101000a900460ff1681565b60008054906101000a900473ffffffffffffffffffffffffffffffffffffffff1681565b60008054906101000a900473ffffffffffffffffffffffffffffffffffffffff1673ffffffffffffffffffffffffffffffffffffffff163373ffffffffffffffffffffffffffffffffffffffff16146106e0576040517f08c379a00000000000000000000000000000000000000000000000000000000081526004016106d790610ba1565b60405180910390fd5b60038060006101000a81548160ff0219169083600381111561070557610704610d39565b5b0217905550565b600660009054906101000a900473ffffffffffffffffffffffffffffffffffffffff1681565b60008054906101000a900473ffffffffffffffffffffffffffffffffffffffff1673ffffffffffffffffffffffffffffffffffffffff163373ffffffffffffffffffffffffffffffffffffffff1614156107c1576040517f08c379a00000000000000000000000000000000000000000000000000000000081526004016107b890610bc1565b60405180910390fd5b60015443116107cf57600080fd5b6002544311156107de57600080fd5b600160038111156107f2576107f1610d39565b5b600360009054906101000a900460ff16600381111561081457610813610d39565b5b1461081e57600080fd5b670de0b6b3a764000034101561083357600080fd5b600034600760003373ffffffffffffffffffffffffffffffffffffffff1673ffffffffffffffffffffffffffffffffffffffff168152602001908152602001600020546108809190610c0d565b9050600454811161089057600080fd5b80600760003373ffffffffffffffffffffffffffffffffffffffff1673ffffffffffffffffffffffffffffffffffffffff1681526020019081526020016000208190555060076000600660009054906101000a900473ffffffffffffffffffffffffffffffffffffffff1673ffffffffffffffffffffffffffffffffffffffff1673ffffffffffffffffffffffffffffffffffffffff168152602001908152602001600020548110156109c0576109b56005548261094e9190610c0d565b60076000600660009054906101000a900473ffffffffffffffffffffffffffffffffffffffff1673ffffffffffffffffffffffffffffffffffffffff1673ffffffffffffffffffffffffffffffffffffffff16815260200190815260200160002054610a9b565b600481905550610a80565b610a388160055460076000600660009054906101000a900473ffffffffffffffffffffffffffffffffffffffff1673ffffffffffffffffffffffffffffffffffffffff1673ffffffffffffffffffffffffffffffffffffffff16815260200190815260200160002054610a339190610c0d565b610a9b565b60048190555033600660006101000a81548173ffffffffffffffffffffffffffffffffffffffff021916908373ffffffffffffffffffffffffffffffffffffffff1602179055505b50565b60076020528060005260406000206000915090505481565b6000818311610aac57829050610ab0565b8190505b92915050565b600081359050610ac581610df9565b92915050565b600060208284031215610ae157610ae0610d68565b5b6000610aef84828501610ab6565b91505092915050565b610b0181610ca9565b82525050565b610b1081610cf8565b82525050565b6000610b23602683610bfc565b9150610b2e82610d6d565b604082019050919050565b6000610b46600f83610bfc565b9150610b5182610dbc565b602082019050919050565b610b6581610cee565b82525050565b6000602082019050610b806000830184610af8565b92915050565b6000602082019050610b9b6000830184610b07565b92915050565b60006020820190508181036000830152610bba81610b16565b9050919050565b60006020820190508181036000830152610bda81610b39565b9050919050565b6000602082019050610bf66000830184610b5c565b92915050565b600082825260208201905092915050565b6000610c1882610cee565b9150610c2383610cee565b9250827fffffffffffffffffffffffffffffffffffffffffffffffffffffffffffffffff03821115610c5857610c57610d0a565b5b828201905092915050565b6000610c6e82610cee565b9150610c7983610cee565b925082821015610c8c57610c8b610d0a565b5b828203905092915050565b6000610ca282610cce565b9050919050565b6000610cb482610cce565b9050919050565b6000819050610cc982610de5565b919050565b600073ffffffffffffffffffffffffffffffffffffffff82169050919050565b6000819050919050565b6000610d0382610cbb565b9050919050565b7f4e487b7100000000000000000000000000000000000000000000000000000000600052601160045260246000fd5b7f4e487b7100000000000000000000000000000000000000000000000000000000600052602160045260246000fd5b600080fd5b7f536f72727920796f7520617265206e6f74207065726d697474656420746f207560008201527f73652069742e0000000000000000000000000000000000000000000000000000602082015250565b7f4f776e65722043616e2774206269640000000000000000000000000000000000600082015250565b60048110610df657610df5610d39565b5b50565b610e0281610c97565b8114610e0d57600080fd5b5056fea2646970667358221220f48e0dd6e09c24dbad774413d0cf89f185ab4b0a8c5fd84ba662ae621b11c78864736f6c63430008070033",
  "immutableReferences": {},
  "source": "// SPDX-License-Identifier: MIT\npragma solidity ^0.8.2;\n\ncontract Auction {\n    address payable public owner; \n    uint public startTime; \n    uint public endTime; \n\n    enum State {Started, Running, Ended, Cancelled}\n    State public auctionState;\n\n    uint public highestPayableBid; \n    uint public bidInc; \n\n    address payable public highestBidder; \n\n    mapping(address => uint) public bidders; \n\n    \n    constructor(){\n        owner = payable(msg.sender);\n\n        auctionState = State.Running;\n\n        startTime = block.number;\n        endTime = startTime + 240;\n\n        bidInc = 1 ether;\n    }\n\n    modifier onlyOwner {\n        require(msg.sender == owner, \"Sorry you are not permitted to use it.\");\n        _;\n    }\n    modifier notOwner {\n        require(msg.sender != owner, \"Owner Can't bid\");\n        _;\n    }\n\n    modifier started {\n        require(block.number > startTime);\n        _;\n    }\n\n    modifier isEnded {\n        require(block.number <= endTime);\n        _;    \n    }\n\n    function cancelAuction() public onlyOwner {\n        auctionState = State.Cancelled;\n    }\n\n    function min(uint first, uint second) pure private returns(uint){\n        if(first <= second){\n            return first;\n        }else{\n            return second;\n        }\n    }\n\n    function placeBid() payable public notOwner started isEnded {\n        require(auctionState == State.Running);\n        require(msg.value >= 1 ether);\n\n        uint currentBid = bidders[msg.sender] + msg.value;\n\n        require(currentBid > highestPayableBid);\n\n        bidders[msg.sender] = currentBid;\n\n        if(currentBid < bidders[highestBidder]){\n            highestPayableBid = min(currentBid+bidInc, bidders[highestBidder]);\n        }else {\n            highestPayableBid = min(currentBid, bidders[highestBidder] +bidInc);\n            highestBidder = payable(msg.sender);\n        }\n\n    }\n\n    \n    function finalize() public {\n        require(auctionState == State.Cancelled || block.number >= endTime);\n        require(msg.sender == owner || bidders[msg.sender] > 0);\n        \n        address payable person;\n        uint value;\n\n        if(auctionState == State.Cancelled) {\n            person = payable(msg.sender);\n            value = bidders[msg.sender];\n\n        }else{\n            if(msg.sender == owner){\n                person = owner;\n                value = highestPayableBid; \n            }else{\n                if(msg.sender == highestBidder){\n                    person = highestBidder;\n                    value = bidders[highestBidder] - highestPayableBid;\n                }else{\n                    person = payable(msg.sender);\n                    value = bidders[msg.sender];\n                }\n            }\n        }\n        bidders[msg.sender] = 0;\n        person.transfer(value);\n    }\n}\n",
  "sourcePath": "/home/kaushik/Auction-Smart-Contract_BCT/contracts/Auction.sol",
  "compiler": {
    "name": "solc",
    "version": "0.8.7+commit.e28d00a7.Emscripten.clang"
  },
  "schemaVersion": "3.4.15",
  "updatedAt": "2023-08-22T17:31:21.922Z",
  "networkType": "ethereum",
  "devdoc": {
    "kind": "dev",
    "methods": {},
    "version": 1
  },
  "userdoc": {
    "kind": "user",
    "methods": {},
    "version": 1
  }
}